:020000040800F2
:10000000F83E0020BD46000829470008294700089F
:100010002947000829470008294700080000000078
:100020000000000000000000000000002947000858
:1000300029470008000000002947000895510008E2
:1000400029470008294700082947000829470008D0
:1000500029470008294700082947000829470008C0
:1000600029470008294700082947000829470008B0
:1000700029470008294700082947000829470008A0
:100080002947000829470008294700082947000890
:100090002947000829470008294700082947000880
:1000A0002947000829470008294700082947000870
:1000B0002947000829470008294700082947000860
:1000C0002947000829470008294700082947000850
:1000D00029470008E15D0008155E0008495E000838
:1000E0002947000829470008294700082947000830
:1000F0002947000829470008294700082947000820
:10010000294700082947000829470008294700080F
:100110007D5E0008B15E000829470008AD58000860
:1001200011AF00082947000829470008294700089F
:1001300029470008294700082947000829470008DF
:1001400029470008294700082947000829470008CF
:10015000294700082947000829470008E55E0008EC
:1001600029470008294700082947000829470008AF
:10017000294700082947000829470008294700089F
:100180002947000829470008195F00084D5F00084B
:10019000294700082947000829470008294700087F
:1001A00029470008294700082947000880B584B07E
:1001B00002AF00F0AFF97860184801F053FB7B689C
:1001C000012B0DD1002009F0B9F91F230093002362
:1001D00001930A200A21124A124B09F055FFFEE74B
:1001E0007B68022B0DD1002009F0A8F91F23009392
:1001F000002301930A200A210B4A0A4B09F044FF0D
:10020000FEE704F02FF800F0A9F9084B1B6A184626
:100210000AF096FB0837BD4680BD00BF60CE0008DF
:1002200078CE0008D404002084CE00084836002090
:1002300080B582B000AF00F01BFAA74B1B681846D0
:1002400006F05CFAA54B1B68002B40F06081A34BC5
:1002500032221A60002005F0BFFA0346002B23D09B
:100260000023FB719C4BDB6A022B09D19A4B1B6B61
:10027000042B1DD1984B05221A630223FB7117E052
:10028000954B1B6B002B05D1934B01221A63022364
:10029000FB710DE0904B1B6B012B09D18E4B0222A1
:1002A0001A630223FB7103E007F0A2FA0346FB7115
:1002B000FB79002B2DD000F0DBF9FB79032B04D167
:1002C000854B1B6A18460AF03BFBFB79042B19D1BE
:1002D000814BDB6A18460AF0F3FB7F4BDB6A022B8B
:1002E00003D07D4B00221A6302E07B4B03221A638A
:1002F00000F0BEF97A4B00221A704FF080400121C5
:100300000CF00CF8FB79062B03D100F0B1F900F0EA
:100310006BFF714BDB6A012B50D16F4B1B6B002BBA
:1003200025D1704B1B6803F40023002B06D16C4BC6
:1003300096225A606A4B02229A6005E0684B962228
:100340005A60674B04229A6000F0F2FC00F0AEFEA7
:10035000614B5B6D002B01D003F0ACFF00F044FF5C
:100360005F4B00221A70012004F070FAACE05A4B87
:100370001B6B012B0BD14FF0804000210BF0CEFF07
:10038000FB79002B00F0A08000F02EFF9CE0524B88
:100390001B6B022B40F098804F4B00221A63504B8E
:1003A00000221A704FF0804001210BF0B7FFFB795B
:1003B000002B00F0898000F017FF85E0464BDB6AD8
:1003C000002B49D1444B1B6B002B21D1444B1B7894
:1003D000042B17D1012004F039FA00F0A9FC00F039
:1003E00065FE3D4B5B6D002B01D003F063FF00F019
:1003F000FBFE3B4B00221A704FF0804001210BF0B6
:100400008DFF61E0FB79002B5ED000F0EDFE5BE03C
:10041000314B1B6B012B0AD14FF0804000210BF0B8
:100420007DFFFB79002B4FD000F0DEFE4CE02A4B25
:100430001B6B022B48D1284B00221A63284B002249
:100440001A704FF0804001210BF068FFFB79002B00
:100450003AD000F0C9FE37E01F4B1B6B032B1CD1B9
:100460001F4B1B78042B12D11B4B04221A63012053
:1004700004F0ECF900F05CFC00F018FE164B5B6D2C
:10048000002B01D003F016FF00F0AEFE1CE0FB795C
:10049000002B19D000F0A8FE16E00F4B1B6B052BAC
:1004A0000DD10D4B03221A6300F09EFE0C4B00226F
:1004B0001A704FF0804001210BF030FF04E0FB790F
:1004C000002B01D000F090FE074B1B68002B0DD1D4
:1004D00006F0C8F80FE000BF483600207822002060
:1004E0007C220020106402404C290020084B1B682D
:1004F000184606F003F909F029F9054B1B6D002B8E
:1005000005D001F02DF8024B00221A659AE699E613
:100510004836002080B582B000AF00237B600BF02E
:10052000EFFB0346012B01D001237B6004F0FEFDAD
:1005300004F0FEF805F00AF905F0F0F908F004FF00
:1005400008F04CFF012009F0C9F800F077F80AF034
:10055000D7F97B6818460837BD4680BD80B400AF28
:10056000344B64221A60334B00225A60314B012213
:100570009A60304B0022DA602E4B19221A822D4BE2
:1005800002225A612B4B00229A612A4B4FF6B57218
:100590009A83284B09221A62264B00225A62254B65
:1005A00000229A62234B0122DA62224B00221A6354
:1005B000204B4FF480629A861E4B4FF40062DA861D
:1005C0001C4B00229A631B4B4FF400629A87194B15
:1005D0004FF44062DA87174B40F2A462A3F8402040
:1005E000144B40F6FC02A3F84220124B4FF47A72EF
:1005F000A3F844200F4B00229A640E4B0022DA64C9
:100600000C4B00221A650B4B01225A650A4B002243
:100610001A60094B00221A71074B01225A71064BCE
:1006200000229A71044B0022DA71BD465DF8047B0A
:10063000704700BF483600204C29002080B500AF2D
:1006400008F036FFFF2008F097FF002008F076FF43
:1006500009F05AF808F03EFF002008F06FFF08F09C
:1006600047FF002008F06AFF08F050FF80BD00BF80
:1006700080B500AF08F02EFF002008F05FFF06F005
:10068000CFF800F003F808F041FF80BD80B586B0D8
:1006900002AF0D23BB8009237B800023BB601CE0DD
:1006A0000023FB6012E0BB689AB2BB8813449AB285
:1006B000FB6899B27B880B449BB2104619464FF2F7
:1006C000DE7205F03DFDFB681933FB60FB68B3F596
:1006D000967FE8D9BB681933BB60BB68C82BDFD9EC
:1006E000BB8864339BB2FB80FB8818464FF2DE71F7
:1006F000002200F059FA7B8896339BB2FB80FB887E
:1007000018464FF2DE71002200F0B2FABB88013BBE
:100710009AB27B88013B9BB24FF2DE71009110468A
:1007200019464FF49772002305F0DAFDBB88C933F0
:100730009AB27B88013B9BB24FF2DE71009110466A
:1007400019464FF49772002305F0CAFDBB88013BA0
:100750009AB27B88013B9BB24FF2DE71009110464A
:100760001946CA22012305F0BBFDBB88013B9AB2A2
:100770007B8803F22D139BB24FF2DE71009110467D
:100780001946CA22012305F0ABFD704B5B6A002BB2
:1007900034D16E4B9A8E6D4B9B681046194600F013
:1007A0003BFE0346FB80694B1B8A9AB2FB881344CD
:1007B0009BB271339BB2FB80B7F906300C2B01DC86
:1007C0000D23FB80B7F90630D52B01DDD523FB8047
:1007D000FB88184640F2FF71012200F0E5F9FB8822
:1007E000033B9BB240F2FF72009200220192184636
:1007F0000021574A574B09F047FC37E0534B5B6ADF
:10080000012B33D1514BDA8E504B5B6910461946A0
:1008100000F002FE0346FB804C4B9B8B9AB2FB8898
:1008200013449BB271339BB2FB80B7F906300C2B9B
:1008300001DC0D23FB80B7F90630D52B01DDD52374
:10084000FB80FB8818464FF6E071012200F0ACF9FE
:10085000FB88033B9BB24FF6E072009200220192AC
:10086000184600213A4A3B4B09F00EFC374B9B6B74
:10087000012B75D1354B9A8F344B9B681046194626
:1008800000F0CAFD0346FB80304B1B8A9AB2FB88FE
:1008900013449BB271339BB2FB80B7F906300C2B2B
:1008A00001DC0D23FB80B7F90630D52B01DDD52304
:1008B000FB80FB8818464FF4FC61022200F074F9BB
:1008C000FB88033B9BB24FF4FC6200920022019232
:1008D00018464FF49C71204A1E4B09F0D5FB1B4B68
:1008E000DA8F1A4B9B681046194600F095FD0346B7
:1008F000FB80164B1B8A9AB2FB8813449BB2713360
:100900009BB2FB80B7F906300C2B01DC0D23FB807A
:10091000B7F90630D52B01DDD523FB80FB881846BF
:100920004FF4FC61022200F03FF9FB88033B9BB2CD
:100930004FF4FC6200920022019218464FF49C7121
:10094000064A044B09F0A0FB21E100BF4836002015
:1009500098CE0008D40400209CCE0008A0CE000849
:100960008C4B9B6B022B6AD18A4B9A8F894B5B69AC
:100970001046194600F050FD0346FB80854B9B8BCB
:100980009AB2FB8813449BB271339BB2FB80B7F9D8
:1009900006300C2B01DC0D23FB80B7F90630D52B7C
:1009A00001DDD523FB80FB8818464FF4FC61022251
:1009B00000F0FAF8FB88033B9BB24FF4FC62009214
:1009C0000022019218464FF49C71734A734B09F050
:1009D0005BFB704BDA8F6F4B5B691046194600F07A
:1009E0001BFD0346FB806B4B9B8B9AB2FB88134429
:1009F0009BB271339BB2FB80B7F906300C2B01DC44
:100A00000D23FB80B7F90630D52B01DDD523FB8004
:100A1000FB8818464FF4FC61022200F0C5F8FB8801
:100A2000033B9BB24FF4FC620092002201921846F5
:100A30004FF49C715A4A594B09F026FBA7E0554BDD
:100A40009B6B032B6CD1534BB3F840304FF4967231
:100A500002FB03F3534A82FB03121A44D212DB1740
:100A6000D31AFB80FB8809339BB2FB80B7F90630B1
:100A7000082B01DC0923FB80B7F90630B3F59B7F17
:100A800002DB40F23513FB80FB8818464FF4FC6113
:100A9000022200F0EDF8FB88033B9BB24FF4FC62AE
:100AA000009200220192D72019463B4A3B4B09F0A5
:100AB000EBFA384BB3F842304FF4967202FB03F373
:100AC000384A82FB03121A44D212DB17D31AFB8076
:100AD000FB8809339BB2FB80B7F90630082B01DC99
:100AE0000923FB80B7F90630B3F59B7F02DB40F2A8
:100AF0003513FB80FB8818464FF4FC61022200F09E
:100B0000B7F8FB88033B9BB24FF4FC6200920022D3
:100B10000192D7201946224A204B09F0B5FA36E057
:100B20001C4B9B6B042B32D11A4BB3F844305B0245
:100B30001C4A82FB03121A441213DB17D31AFB80E0
:100B4000FB8820339BB2FB80B7F906301E2B01DCFB
:100B50001F23FB80B7F90630B3F5907F02DB40F22C
:100B60001F13FB80FB8818464FF4FC61022200F043
:100B70007FF8FB88033B9BB24FF4FC62009200229B
:100B80000192D7201946044A044B09F07DFA103728
:100B9000BD4680BD483600209CCE0008D40400200D
:100BA000A0CE00088100088080B584B000AF134655
:100BB0000246FA800A46BA807B807B88002B15D1DA
:100BC0000023FB600DE0FB689BB209339AB2F98801
:100BD000BB88084611461A4605F0B2FAFB68053391
:100BE000FB60FB68B3F5967FEDD93DE07B88012B78
:100BF00015D10023FB600DE0FB689BB209339AB26C
:100C0000F988BB88084611461A4605F099FAFB6830
:100C10000233FB60FB68B3F5967FEDD924E07B8857
:100C2000022B21D10023BB600023FB6018E0BB68CE
:100C3000012B0AD8FB689BB209339AB2F988BB88AA
:100C4000084611461A4605F07BFABB680133BB60C3
:100C5000BB68042B01D90023BB60FB680133FB6038
:100C6000FB68B3F5967FE2D91037BD4680BD00BF63
:100C700080B584B000AF13460246FA800A46BA80B7
:100C80007B807B88002B14D10023FB600DE0FB6888
:100C90009BB20D3399B2FA88BB88084611461A46B2
:100CA00005F04EFAFB680533FB60FB68C82BEED9F4
:100CB0003BE07B88012B14D10023FB600DE0FB6837
:100CC0009BB20D3399B2FA88BB88084611461A4682
:100CD00005F036FAFB680233FB60FB68C82BEED9DF
:100CE00023E07B88022B20D10023BB600023FB6024
:100CF00018E0BB68012B0AD8FB689BB20D3399B290
:100D0000FA88BB88084611461A4605F019FABB68EE
:100D10000133BB60BB68042B01D90023BB60FB68B7
:100D20000133FB60FB68C82BE3D91037BD4680BD9B
:100D300080B487B000AF00237B6100233B610023B8
:100D4000FB600023BB60A44B9B68012B63D1A24BCB
:100D50005B68C3F19603FB60FB68C3F596733B6168
:100D600000237B6120E03A697B6913445A009B4B66
:100D700033F81230FB807B695A00994BF98823F8CD
:100D800012103A697B6913445B005A1C934B33F889
:100D90001230FB807B695B005A1C914BF98823F869
:100DA00012107B6901337B617A69FB689A42DAD35E
:100DB000FB68C3F59673BB6000233B6100237B6136
:100DC00024E03A697B6913445A00864B33F81230A9
:100DD000FB807A69FB6813445A00814BF98823F839
:100DE00012103A697B6913445B005A1C7D4B33F83F
:100DF0001230FB807A69FB6813445B005A1C784B05
:100E0000F98823F812107B6901337B617A69BB682A
:100E10009A42D6D33FE1704B9B68022B63D16E4B55
:100E20005B68C3F5E173FB60FB68C3F596733B61D8
:100E300000237B6120E03A697B6913445A00694BC7
:100E400033F81230FB807B695A00654BF98823F830
:100E500012103A697B6913445B005A1C614B33F8EA
:100E60001230FB807B695B005A1C5D4BF98823F8CC
:100E700012107B6901337B617A69FB689A42DAD38D
:100E8000FB68C3F59673BB6000233B6100237B6165
:100E900024E03A697B6913445A00504B33F812300E
:100EA000FB807A69FB6813445A004D4BF98823F89C
:100EB00012103A697B6913445B005A1C474B33F8A4
:100EC0001230FB807A69FB6813445B005A1C444B68
:100ED000F98823F812107B6901337B617A69BB685A
:100EE0009A42D6D3D7E03C4B9B68032B63D13A4B55
:100EF0005B68C3F19603FB60FB68C3F596733B61C7
:100F000000237B6120E03A697B6913445A00354B2A
:100F100033F81230FB807B695A00314BF98823F893
:100F200012103A697B6913445B005A1C2D4B33F84D
:100F30001230FB807B695B005A1C294BF98823F82F
:100F400012107B6901337B617A69FB689A42DAD3BC
:100F5000FB68C3F59673BB6000233B6100237B6194
:100F600024E03A697B6913445A001C4B33F8123071
:100F7000FB807A69FB6813445A00194BF98823F8FF
:100F800012103A697B6913445B005A1C134B33F807
:100F90001230FB807A69FB6813445B005A1C104BCB
:100FA000F98823F812107B6901337B617A69BB6889
:100FB0009A42D6D36FE0084B9B68042B6BD1064B4B
:100FC0005B68C3F5E173FB60FB68C3F596733B6137
:100FD00000237B6129E000BF7C22002060290020E3
:100FE000C01D00208C2400203A697B6913445A00FC
:100FF0002B4B33F81230FB807B695A00294BF98860
:1010000023F812103A697B6913445B005A1C244B85
:1010100033F81230FB807B695B005A1C214BF98846
:1010200023F812107B6901337B617A69FB689A426D
:10103000DAD3FB68C3F59673BB6000233B610023E2
:101040007B6124E03A697B6913445A00164B33F8FC
:101050001230FB807A69FB6813445A00114BF988FF
:1010600023F812103A697B6913445B005A1C0E4B3B
:1010700033F81230FB807A69FB6813445B005A1C1A
:10108000084BF98823F812107B6901337B617A6978
:10109000BB689A42D6D31C37BD465DF8047B7047C7
:1010A00060290020C01D00208C24002080B582B063
:1010B00000AF484B5B6D012B42D100233B60002306
:1010C0007B6038E03B68B3F5967F27D23B685A00D7
:1010D000414B33F812309BB218460BF0ABFB024683
:1010E0000B46104619464FF000023C4B0BF054FAE9
:1010F00002460B46104619464FF00002384B0BF0E3
:1011000029FD02460B46104619460BF053FE0246D7
:1011100034497B689B000B441A6006E0314A7B68C7
:101120009B0013444FF000021A603B6801333B60A0
:101130007B6801337B607B68B3F5007FC2D346E0F8
:10114000244B5B6D022B42D100233B6000237B606C
:1011500039E03B68B3F5967F28D23B685B005A1CA8
:101160001D4B33F812309BB218460BF063FB02465E
:101170000B46104619464FF00002184B0BF00CFAC4
:1011800002460B46104619464FF00002144B0BF076
:10119000E1FC02460B46104619460BF00BFE0246D8
:1011A00010497B689B000B441A6006E00D4A7B687F
:1011B0009B0013444FF000021A603B6801333B6010
:1011C0007B6801337B607B68B3F5007FC1D3083750
:1011D000BD4680BD48360020C01D00200000A04054
:1011E00000408F40102E002090B587B002AF002342
:1011F000FB60FFF73DFA08F06DF9834B1B889AB24C
:10120000824B9B681046194600F006F903467B8125
:101210007E4B1B8A9AB27B8913449BB271339BB27B
:101220007B81B7F90A300C2B01DC0D237B81B7F9E8
:101230000A30D52B01DDD5237B81734B5B889AB2B5
:10124000724B5B691046194600F0E6F80346FB80D6
:101250006E4B9B8B9AB2FB8813449BB271339BB24B
:10126000FB80B7F906300C2B01DC0D23FB80B7F9AE
:101270000630D52B01DDD523FB80654B1B887B8099
:101280007B8814339BB27B80B7F902300C2B01DCD6
:101290000D237B80B7F90230D52B01DDD5237B8070
:1012A0000123FB6073E0594BDB68002B33D1FB68F3
:1012B0005A00554B33F812309AB2544B9B68104683
:1012C000194600F0A9F803463B81504B1B8A9AB29D
:1012D0003B8913449BB271339BB23B81B7F9083011
:1012E0000C2B01DC0D233B81B7F90830D52B01DD38
:1012F000D5233B817889FB689BB2093399B23A893F
:10130000FB689BB20A339BB240F2FF74009404F076
:1013100037FF3B897B813D4B9B69002B34D1FB68B8
:101320005B005A1C384B33F812309AB2374B5B696A
:101330001046194600F070F80346BB80334B9B8B78
:101340009AB2BB8813449BB271339BB2BB80B7F98E
:1013500004300C2B01DC0D23BB80B7F90430D52BF6
:1013600001DDD523BB80F888FB689BB2093399B2B5
:10137000BA88FB689BB20A339BB24FF6E0740094C4
:1013800004F0FEFEBB88FB80FB680133FB60FB685A
:10139000B3F5967F87D31D4B5B6D002B2ED00123B9
:1013A000FB6028E01A4BFA6833F812303B803B8828
:1013B00014339BB23B80B7F900300C2B01DC0D23BA
:1013C0003B80B7F90030D52B01DDD5233B807888F1
:1013D000FB689BB21F3399B23A88FB689BB22033FB
:1013E0009BB24FF61F04009404F0CAFE3B887B803A
:1013F000FB680133FB60FB68FF2BD3D908F086F84C
:101400001437BD4690BD00BFC01D002048360020E7
:101410008C2200200000000080B584B000AF03469D
:101420003960FB800023FB813B68052B7FD801A13D
:1014300051F823F04D1400086914000887140008BF
:10144000A5140008DB140008F9140008FA881346F4
:101450009B0013449A0013443D4A82FB0312D212AC
:10146000DB17D31AFB8162E0FA8813469B00134412
:101470009A001344374A82FB03121A44D212DB1734
:10148000D31AFB8153E0FA8813469B0013449A0059
:101490001344304A82FB03121A449212DB17D31A08
:1014A000FB8144E0FA8813469B0013449A001344DE
:1014B00018460BF0BFF902460B461046194620A30A
:1014C000D3E900230BF046FB02460B4610461946B3
:1014D0000BF028FC0346FB8129E0FA8813469B00A9
:1014E00013449A0013441C4A82FB03121A4412123A
:1014F000DB17D31AFB811AE0FA8813469B001344CA
:101500009A00134418460BF095F902460B46104614
:1015100019460DA3D3E900230BF01CFB02460B4632
:10152000104619460BF0FEFB0346FB8100BFFB890A
:101530001BB218461037BD4680BD00BFAFF3008018
:1015400000000000005485400000000000106140D1
:10155000E799D14CC1000CC0F1000FF0AFF300804F
:1015600080B586B000AF9C4B9B6C062B02D100F07F
:1015700085F96EE1994800F075F9974B9B6C002B4B
:101580000BD0954B9B6C012B07D0934B9B6C042B82
:1015900003D0914B9B6C052B0ED18F4B9A68904BCF
:1015A00053F822303A1D10468E491A4604F0B8F816
:1015B0003B1D184600F056F9874B9B6C022B0BD055
:1015C000854B9B6C032B07D0834B9B6C042B03D068
:1015D000814B9B6C052B0ED17F4B5A69804B53F886
:1015E00022303A1D104680491A4604F099F83B1DF6
:1015F000184600F037F9784B1A6A7C4B53F82230C2
:101600003A1D10467A491A4604F08AF83B1D1846DE
:1016100000F028F9774800F025F93B1D1846764977
:101620004FF4967204F07CF83B1D184600F01AF94E
:10163000724800F017F9684B9B6C002B03D0664B87
:101640009B6C012B1ED16E4800F00CF900237B61CE
:1016500013E07B695A006B4B33F812307B827B8A34
:101660003A1D104668491A4604F05AF83B1D1846C0
:1016700000F0F8F87B6901337B617B69B3F5967FF5
:10168000E7D354E0544B9B6C022B03D0524B9B6C22
:10169000032B1FD15D4800F0E5F800237B6114E0C7
:1016A0007B695B005A1C574B33F812303B823B8AF4
:1016B0003A1D104654491A4604F032F83B1D1846AC
:1016C00000F0D0F87B6901337B617B69B3F5967FCD
:1016D000E6D32CE0404B9B6C042B03D03E4B9B6C21
:1016E000052B24D14A4800F0BDF800237B611AE0A5
:1016F0007B695A00434B33F812307B827B695B0075
:101700005A1C404B33F812303B827A8A3B8A391D8F
:101710000846404904F004F83B1D184600F0A2F8C2
:101720007B6901337B617B69B3F5967FE0D32A4BFC
:101730009B6C012B08D0284B9B6C032B04D0264BB1
:101740009B6C052B40F08280234B5B6D012B2AD1D3
:10175000314800F087F82A4800F084F83B1D18460D
:1017600025494FF4807203F0DBFF3B1D184600F063
:1017700079F800237B6112E0284B7A6933F8123044
:101780003B823B8A3A1D10461F491A4603F0C8FFA8
:101790003B1D184600F066F87B6901337B617B696D
:1017A000FF2BE9D952E00C4B5B6D022B4ED11A484E
:1017B00000F058F8154800F055F83B1D18460E4942
:1017C0004FF4807203F0ACFF3B1D184600F04AF85E
:1017D00000237B6137E000BF48360020A4CE00081C
:1017E000141B0108B0CE0008BCCE0008B41B0108D1
:1017F000C8CE0008D4CE0008DCCE0008E8CE000831
:10180000F0CE0008C01D0020F4CE0008F8CE00087D
:10181000FCCE000804CF00080CCF00088C2200206A
:101820000D4B7A6933F812303B823B8A3A1D1046E1
:101830000A491A4603F074FF3B1D184600F012F8DF
:101840007B6901337B617B69FF2BE9D9044800F098
:1018500009F81837BD4680BD8C220020F4CE000860
:1018600014CF000880B582B000AF7860002079689E
:10187000022204F0D3F90837BD4680BD80B586B09A
:1018800000AF00237B610AE02D4A7B6913441B787B
:101890000020194604F096F97B6901337B617B696E
:1018A000352BF1D9274B1B68012B03D14FF0504347
:1018B0003B6101E0244B3B610023FB813AE00023C4
:1018C000BB8130E0BA8913461B019B1A1B011A46E3
:1018D000FB8913445B007B613A697B6913441B8875
:1018E0007B817B8903F478431B127B727B8903F431
:1018F000FC63DB103B727B89DB00FB71FB799BB2E5
:101900000020194604F05EF93B7A9BB2002019468C
:1019100004F058F97B7A9BB20020194604F052F982
:10192000BB890133BB81BB89B3F5A07FCAD3FB89D7
:101930000133FB81FB89EF2BC1D91837BD4680BD30
:101940000000002070220020005802D080B582B034
:1019500000AF0023FB711D4B1B78002B07D01B4BE6
:101960001B78012B01D101232BE0002329E000F09B
:1019700051F800F059F9002000F03AF80346BB8016
:10198000002045F63C2100F023F8002000F030F85C
:1019900003467B80BB880020194600F019F87A883E
:1019A00045F63C239A4201D10123FB71FB79012BBF
:1019B00003D1064B01221A7002E0044B02221A7076
:1019C000FB7918460837BD4680BD00BF8C05002056
:1019D00080B483B000AF78600B467B807B6803F1F6
:1019E00050437A881A800C37BD465DF8047B7047F7
:1019F00080B485B000AF78600023FB817B6803F181
:101A000050431B88FB81FB8918461437BD465DF89F
:101A1000047B704780B582B000AF7E20012103F0C7
:101A200037F802233B7102237B710023BB71002333
:101A3000FB71774805210C2208F03AFA7448062118
:101A40000C2208F035FA60233B603B46704819468B
:101A500008F086F96F4800210C2208F029FA0123CA
:101A60003B603B466B48194608F07AF96A4800210A
:101A70000C2208F01DFA684801210C2208F018FA1F
:101A8000654808210C2208F013FA634809210C224A
:101A900008F00EFA60480A210C2208F009FA5E48A4
:101AA0000E210C2208F004FA5B480F210C2208F0EA
:101AB000FFF94CF203733B603B465748194608F068
:101AC0004FF9564800210C2208F0F2F95348012141
:101AD0000C2208F0EDF9514807210C2208F0E8F932
:101AE0004E4808210C2208F0E3F94C4809210C2249
:101AF00008F0DEF949480A210C2208F0D9F94748D4
:101B00000B210C2208F0D4F944480C210C2208F0D7
:101B1000CFF942480D210C2208F0CAF93F480E21A6
:101B20000C2208F0C5F93D480F210C2208F0C0F93D
:101B30004FF683733B603B463848194608F010F96E
:101B4000374800210C2208F0B3F9354801210C2256
:101B500008F0AEF9324802210C2208F0A9F9304809
:101B600003210C2208F0A4F92D4804210C2208F0CE
:101B70009FF92B4805210C2208F09AF928480B21DF
:101B80000C2208F095F926480C210C2208F090F957
:101B900023480D210C2208F08BF921480E210C223C
:101BA00008F086F91E480F210C2208F081F94FF643
:101BB0003F033B603B461A48194608F0D1F81948E4
:101BC00000210C2208F074F9164801210C2208F0BB
:101BD0006FF9144804210C2208F06AF91148052114
:101BE0000C2208F065F90F4808210C2208F060F972
:101BF0000C480F210C2208F05BF948F233133B60CC
:101C00003B460848194608F0ABF80837BD4680BD8A
:101C10000004024000080240000C02400010024094
:101C2000001402400018024080B592B000AF0120BD
:101C3000012102F04BFF02233B6007237B6004235A
:101C4000BB600723FB6002233B6102237B6102230D
:101C5000BB610123FB6100233B6204237B621023F1
:101C6000BB624023FB624FF4C0733B6300237B6382
:101C70004FF40063BB630023FB634FF400533B64EA
:101C80003B467B6407F11C03184609F0A7FB00F0F4
:101C900003F84837BD4680BD80B586B000AF00234D
:101CA0007B6101237B600823BB600123FB60002371
:101CB0003B6100BF0120202109F070FC0346002B8E
:101CC000F8D13B1D184609F037FC0A2000F05AF8FD
:101CD00002237B600823BB600123FB6000233B6180
:101CE00000BF0120202109F059FC0346002BF8D148
:101CF0003B1D184609F020FC03237B600823BB60D2
:101D00000423FB6000233B6100BF0120202109F078
:101D100045FC0346002BF8D13B1D184609F00CFC8E
:101D200000BF0120202109F039FC0346002BF8D127
:101D30003B1D184609F000FC40F231237B6104236F
:101D40007B600823BB600123FB607B693B6100BFB4
:101D50000120202109F022FC0346002BF8D13B1D75
:101D6000184609F0E9FB40F2AB2009F005FC00BF82
:101D70000120202109F012FC0346002BF8D118376E
:101D8000BD4680BD80B485B000AF78600023FB60A5
:101D90007B68084A02FB03F3FB6002E0FB68013B3F
:101DA000FB60FB68002BF9D11437BD465DF8047B5E
:101DB000704700BFA086010080B49DB000AFF860FE
:101DC0007A600A467A813B817B897B667B6EBB6544
:101DD0007B6E9B087B660023BB660023FB667B6EE5
:101DE0003B66BA6E7B6E13447B657A6D7B6E1344E3
:101DF0003B653A6D7B6E1344FB64BB6EDB00FA6897
:101E0000134493ED007A3B6DDB00FA681344D3ED85
:101E1000007A77EE277AC7ED127ABB6EDB00FA689C
:101E2000134493ED007A3B6DDB00FA681344D3ED65
:101E3000007A77EE677AC7ED117ABB6EDB00043368
:101E4000FA68134493ED007A3B6DDB000433FA68C3
:101E50001344D3ED007A77EE277AC7ED107ABB6E84
:101E6000DB000433FA68134493ED007A3B6DDB002A
:101E70000433FA681344D3ED007A77EE677AC7ED3E
:101E80000F7A7B6DDB00FA68134493ED007AFB6CEC
:101E9000DB00FA681344D3ED007A77EE277AC7EDBA
:101EA0000E7ABB6EDB00FA68134497ED127AD7ED19
:101EB0000E7A77EE277AC3ED007A97ED127AD7ED96
:101EC0000E7A77EE677AC7ED127A7B6DDB0004330A
:101ED000FA68134493ED007AFB6CDB000433FA6874
:101EE0001344D3ED007A77EE277AC7ED0D7ABB6EF7
:101EF000DB000433FA68134497ED107AD7ED0D7ABE
:101F000077EE277AC3ED007A97ED107AD7ED0D7A48
:101F100077EE677AC7ED107A7B6DDB000433FA68E1
:101F2000134493ED007AFB6CDB000433FA6813442E
:101F3000D3ED007A77EE677AC7ED0E7A7B6DDB0022
:101F4000FA68134493ED007AFB6CDB00FA681344E3
:101F5000D3ED007A77EE677AC7ED0D7AFA6EFB6EF5
:101F600013443B633B6BDB007A6813441B68FB62E2
:101F70003B6BDB0004337A6813441B68BB627B6DE8
:101F8000DB00FA68134497ED127AD7ED0B7A27EE4F
:101F9000277AD7ED106AD7ED0A7A66EEA77A77EE40
:101FA000277AC3ED007A7B6DDB000433FA681344B3
:101FB00097ED107AD7ED0B7A27EE277AD7ED126AD4
:101FC000D7ED0A7A66EEA77A77EE677AC3ED007AE4
:101FD00097ED117AD7ED0E7A77EE277AC7ED127A60
:101FE00097ED117AD7ED0E7A77EE677AC7ED117A11
:101FF00097ED0F7AD7ED0D7A77EE677AC7ED107A05
:1020000097ED0F7AD7ED0D7A77EE277AC7ED0F7A35
:10201000FB6EDB007A6813441B687B62FB6EDB009F
:1020200004337A6813441B683B623B6DDB00FA683B
:10203000134497ED127AD7ED097A27EE277AD7ED78
:10204000106AD7ED087A66EEA77A77EE277AC3EDA5
:10205000007A3B6DDB000433FA68134497ED107A85
:10206000D7ED097A27EE277AD7ED126AD7ED087AED
:1020700066EEA77A77EE677AC3ED007A3A6BFB6E6D
:102080001344FB61FB69DB007A6813441B68BB6186
:10209000FB69DB0004337A6813441B687B61FB6CCB
:1020A000DB00FA68134497ED117AD7ED067A27EE34
:1020B000277AD7ED0F6AD7ED057A66EEA77A77EE25
:1020C000277AC3ED007AFB6CDB000433FA68134413
:1020D00097ED0F7AD7ED067A27EE277AD7ED116ABA
:1020E000D7ED057A66EEA77A77EE677AC3ED007AC8
:1020F0003B89FA6E1344FB66BB6E0133BB663B6ED5
:10210000013B3B663B6E002B7FF46BAE3B899B0033
:102110003B817B899B089BB2FB65AFE17B6EBB6516
:102120007B6E9B087B660023FB6600233B6699E180
:10213000FA6EFB6E13443B633A6BFB6E1344FB6118
:10214000FB6EDB007A6813441B687B62FB6EDB006E
:1021500004337A6813441B683B623B6BDB007A688C
:1021600013441B68FB623B6BDB0004337A68134447
:102170001B68BB62FB69DB007A6813441B68BB61A8
:10218000FB69DB0004337A6813441B687B613B897D
:10219000FA6E1344FB663B6EBB665BE1BA6E7B6E08
:1021A00013447B657A6D7B6E13443B653A6D7B6EA1
:1021B0001344FB64BB6EDB00FA68134493ED007AB2
:1021C0003B6DDB00FA681344D3ED007A77EE277A93
:1021D000C7ED127ABB6EDB00FA68134493ED007A08
:1021E0003B6DDB00FA681344D3ED007A77EE677A33
:1021F000C7ED117ABB6EDB000433FA68134493ED2C
:10220000007A3B6DDB000433FA681344D3ED007AA7
:1022100077EE277AC7ED107ABB6EDB000433FA68DD
:10222000134493ED007A3B6DDB000433FA681344EA
:10223000D3ED007A77EE677AC7ED0F7A7B6DDB001E
:10224000FA68134493ED007AFB6CDB00FA681344E0
:10225000D3ED007A77EE277AC7ED0E7ABB6EDB00FE
:10226000FA68134497ED127AD7ED0E7A77EE277A53
:10227000C3ED007A97ED127AD7ED0E7A77EE677A92
:10228000C7ED127A7B6DDB000433FA68134493EDDB
:10229000007AFB6CDB000433FA681344D3ED007A58
:1022A00077EE277AC7ED0D7ABB6EDB000433FA6850
:1022B000134497ED107AD7ED0D7A77EE277AC3EDB8
:1022C000007A97ED107AD7ED0D7A77EE677AC7ED41
:1022D000107A7B6DDB000433FA68134493ED007AC7
:1022E000FB6CDB000433FA681344D3ED007A77EE1D
:1022F000677AC7ED0E7A7B6DDB00FA68134493EDC5
:10230000007AFB6CDB00FA681344D3ED007A77EEB9
:10231000677AC7ED0D7A7B6DDB00FA68134497EDA1
:10232000127AD7ED0B7A27EE277AD7ED106AD7ED20
:102330000A7A66EEA77A77EE277AC3ED007A7B6D8C
:10234000DB000433FA68134497ED107AD7ED0B7A6B
:1023500027EE277AD7ED126AD7ED0A7A66EEA77ACA
:1023600077EE677AC3ED007A97ED117AD7ED0E7AA2
:1023700077EE277AC7ED127A97ED117AD7ED0E7ABC
:1023800077EE677AC7ED117A97ED0F7AD7ED0D7A70
:1023900077EE677AC7ED107A97ED0F7AD7ED0D7A61
:1023A00077EE277AC7ED0F7A3B6DDB00FA681344AE
:1023B00097ED127AD7ED097A27EE277AD7ED106AD2
:1023C000D7ED087A66EEA77A77EE277AC3ED007A22
:1023D0003B6DDB000433FA68134497ED107AD7EDB8
:1023E000097A27EE277AD7ED126AD7ED087A66EEDA
:1023F000A77A77EE677AC3ED007AFB6CDB00FA68A8
:10240000134497ED117AD7ED067A27EE277AD7EDA8
:102410000F6AD7ED057A66EEA77A77EE277AC3EDD5
:10242000007AFB6CDB000433FA68134497ED0F7AF3
:10243000D7ED067A27EE277AD7ED116AD7ED057A20
:1024400066EEA77A77EE677AC3ED007ABA6EBB6D57
:102450001344BB667A89BB6E9A423FF69FAE3B6ED1
:1024600001333B667B6E5A1E3B6E9A42BFF460AEF0
:102470003B899B003B81FB6D9B08FB65FB6D042B3F
:102480003FF64CAE7B6EBB657B6E9B087B66002384
:10249000BB6607E1BA6E7B6E13447B657A6D7B6E1B
:1024A00013443B653A6D7B6E1344FB64BB6EDB00EB
:1024B000FA68134493ED007A3B6DDB00FA6813442D
:1024C000D3ED007A77EE277AC7ED127ABB6EDB0088
:1024D000FA68134493ED007A3B6DDB00FA6813440D
:1024E000D3ED007A77EE677AC7ED117ABB6EDB0029
:1024F0000433FA68134493ED007A3B6DDB00043338
:10250000FA681344D3ED007A77EE277AC7ED107A94
:10251000BB6EDB000433FA68134493ED007A3B6D25
:10252000DB000433FA681344D3ED007A77EE677A60
:10253000C7ED0F7A7B6DDB00FA68134493ED007AE8
:10254000FB6CDB00FA681344D3ED007A77EE277A50
:10255000C7ED0E7ABB6EDB00FA68134497ED127A72
:10256000D7ED0E7A77EE277AC3ED007A97ED127ADF
:10257000D7ED0E7A77EE677AC7ED127A7B6DDB00C6
:102580000433FA68134493ED007AFB6CDB000433E8
:10259000FA681344D3ED007A77EE277AC7ED0D7A07
:1025A000BB6EDB000433FA68134497ED107AD7ED65
:1025B0000D7A77EE277AC3ED007A97ED107AD7ED92
:1025C0000D7A77EE677AC7ED107A7B6DDB00043306
:1025D000FA68134493ED007AFB6CDB000433FA686D
:1025E0001344D3ED007A77EE677AC7ED0E7A7B6DF0
:1025F000DB00FA68134493ED007AFB6CDB00FA68A9
:102600001344D3ED007A77EE677AC7ED0D7A7B6DD0
:10261000DB00FA681344BA6C1A607B6DDB0004338C
:10262000FA6813443A6C1A6097ED117AD7ED0E7A76
:1026300077EE277AC7ED127A97ED117AD7ED0E7AF9
:1026400077EE677AC7ED117A97ED0F7AD7ED0D7AAD
:1026500077EE677AC7ED107A97ED0F7AD7ED0D7A9E
:1026600077EE277AC7ED0F7A3B6DDB00FA681344EB
:10267000BA6C1A603B6DDB000433FA6813443A6CA1
:102680001A60FB6CDB00FA6813447A6C1A60FB6C0E
:10269000DB000433FA681344FA6B1A60BA6EBB6D40
:1026A0001344BB667A89BB6DD21ABB6E9A42BFF4E3
:1026B000F1AE7437BD465DF8047B704780B49DB0C1
:1026C00000AFF8607A600A467A813B817B897B663D
:1026D0007B6EBB657B6E9B087B660023BB6600231D
:1026E000FB667B6E3B66BA6E7B6E13447B657A6DD0
:1026F0007B6E13443B653A6D7B6E1344FB64BB6E8B
:10270000DB00FA68134493ED007A3B6DDB00FA6856
:102710001344D3ED007A77EE277AC7ED127ABB6EB9
:10272000DB00FA68134493ED007A3B6DDB00FA6836
:102730001344D3ED007A77EE677AC7ED117ABB6E5A
:10274000DB000433FA68134493ED007A3B6DDB0041
:102750000433FA681344D3ED007A77EE277AC7ED95
:10276000107ABB6EDB000433FA68134493ED007AF1
:102770003B6DDB000433FA681344D3ED007A77EE47
:10278000677AC7ED0F7A7B6DDB00FA68134493ED2F
:10279000007AFB6CDB00FA681344D3ED007A77EE25
:1027A000277AC7ED0E7ABB6EDB00FA68134497ED0B
:1027B000127AD7ED0E7A77EE277AC3ED007A97ED8D
:1027C000127AD7ED0E7A77EE677AC7ED127A7B6DC3
:1027D000DB000433FA68134493ED007AFB6CDB00F2
:1027E0000433FA681344D3ED007A77EE277AC7ED05
:1027F0000D7ABB6EDB000433FA68134497ED107A50
:10280000D7ED0D7A77EE277AC3ED007A97ED107A3F
:10281000D7ED0D7A77EE677AC7ED107A7B6DDB0026
:102820000433FA68134493ED007AFB6CDB00043345
:10283000FA681344D3ED007A77EE677AC7ED0E7A23
:102840007B6DDB00FA68134493ED007AFB6CDB00D0
:10285000FA681344D3ED007A77EE677AC7ED0D7A04
:10286000FA6EFB6E13443B633B6BDB007A681344E8
:102870001B68FB623B6BDB0004337A6813441B6804
:10288000BB627B6DDB00FA68134497ED127AD7EDDB
:102890000B7A27EE277AD7ED106AD7ED0A7A66EE23
:1028A000A77A77EE677AC3ED007A7B6DDB0004339D
:1028B000FA68134497ED107AD7ED0B7A27EE277A52
:1028C000D7ED126AD7ED0A7A66EEA77A77EE277A05
:1028D000C3ED007A97ED117AD7ED0E7A77EE677A2D
:1028E000C7ED127A97ED117AD7ED0E7A77EE277A47
:1028F000C7ED117A97ED0F7AD7ED0D7A77EE277A3B
:10290000C7ED107A97ED0F7AD7ED0D7A77EE677AEB
:10291000C7ED0F7AFB6EDB007A6813441B687B629D
:10292000FB6EDB0004337A6813441B683B623B6D2B
:10293000DB00FA68134497ED127AD7ED097A27EE97
:10294000277AD7ED106AD7ED087A66EEA77A77EE88
:10295000677AC3ED007A3B6DDB000433FA681344F9
:1029600097ED107AD7ED097A27EE277AD7ED126A1C
:10297000D7ED087A66EEA77A77EE277AC3ED007A6C
:102980003A6BFB6E1344FB61FB69DB007A6813440E
:102990001B68BB61FB69DB0004337A6813441B6866
:1029A0007B61FB6CDB00FA68134497ED117AD7ED7D
:1029B000067A27EE277AD7ED0F6AD7ED057A66EE0D
:1029C000A77A77EE677AC3ED007AFB6CDB000433FD
:1029D000FA68134497ED0F7AD7ED067A27EE277A37
:1029E000D7ED116AD7ED057A66EEA77A77EE277AEA
:1029F000C3ED007A3B89FA6E1344FB66BB6E01336C
:102A0000BB663B6E013B3B663B6E002B7FF46BAEBF
:102A10003B899B003B817B899B089BB2FB65AFE1B7
:102A20007B6EBB657B6E9B087B660023FB66002389
:102A30003B6699E1FA6EFB6E13443B633A6BFB6EA7
:102A40001344FB61FB6EDB007A6813441B687B62F6
:102A5000FB6EDB0004337A6813441B683B623B6BFC
:102A6000DB007A6813441B68FB623B6BDB000433BA
:102A70007A6813441B68BB62FB69DB007A68134405
:102A80001B68BB61FB69DB0004337A6813441B6875
:102A90007B613B89FA6E1344FB663B6EBB665BE170
:102AA000BA6E7B6E13447B657A6D7B6E13443B6517
:102AB0003A6D7B6E1344FB64BB6EDB00FA68134413
:102AC00093ED007A3B6DDB00FA681344D3ED007A96
:102AD00077EE277AC7ED127ABB6EDB00FA681344F3
:102AE00093ED007A3B6DDB00FA681344D3ED007A76
:102AF00077EE677AC7ED117ABB6EDB000433FA68B4
:102B0000134493ED007A3B6DDB000433FA68134401
:102B1000D3ED007A77EE277AC7ED107ABB6EDB0033
:102B20000433FA68134493ED007A3B6DDB00043301
:102B3000FA681344D3ED007A77EE677AC7ED0F7A1F
:102B40007B6DDB00FA68134493ED007AFB6CDB00CD
:102B5000FA681344D3ED007A77EE277AC7ED0E7A40
:102B6000BB6EDB00FA68134497ED127AD7ED0E7A4C
:102B700077EE277AC3ED007A97ED127AD7ED0E7AC9
:102B800077EE677AC7ED127A7B6DDB000433FA6863
:102B9000134493ED007AFB6CDB000433FA681344B2
:102BA000D3ED007A77EE277AC7ED0D7ABB6EDB00A6
:102BB0000433FA68134497ED107AD7ED0D7A77EE67
:102BC000277AC3ED007A97ED107AD7ED0D7A77EE7C
:102BD000677AC7ED107A7B6DDB000433FA68134423
:102BE00093ED007AFB6CDB000433FA681344D3EDF9
:102BF000007A77EE677AC7ED0E7A7B6DDB00FA68B4
:102C0000134493ED007AFB6CDB00FA681344D3EDB8
:102C1000007A77EE677AC7ED0D7A7B6DDB00FA6894
:102C2000134497ED127AD7ED0B7A27EE277AD7ED7A
:102C3000106AD7ED0A7A66EEA77A77EE677AC3ED67
:102C4000007A7B6DDB000433FA68134497ED107A49
:102C5000D7ED0B7A27EE277AD7ED126AD7ED0A7AED
:102C600066EEA77A77EE277AC3ED007A97ED117AB0
:102C7000D7ED0E7A77EE677AC7ED127A97ED117A73
:102C8000D7ED0E7A77EE277AC7ED117A97ED0F7AA6
:102C9000D7ED0D7A77EE277AC7ED107A97ED0F7A98
:102CA000D7ED0D7A77EE677AC7ED0F7A3B6DDB00D3
:102CB000FA68134497ED127AD7ED097A27EE277A4E
:102CC000D7ED106AD7ED087A66EEA77A77EE677AC5
:102CD000C3ED007A3B6DDB000433FA68134497EDD3
:102CE000107AD7ED097A27EE277AD7ED126AD7ED59
:102CF000087A66EEA77A77EE277AC3ED007AFB6C46
:102D0000DB00FA68134497ED117AD7ED067A27EEC7
:102D1000277AD7ED0F6AD7ED057A66EEA77A77EEB8
:102D2000677AC3ED007AFB6CDB000433FA68134466
:102D300097ED0F7AD7ED067A27EE277AD7ED116A4D
:102D4000D7ED057A66EEA77A77EE277AC3ED007A9B
:102D5000BA6EBB6D1344BB667A89BB6E9A423FF66E
:102D60009FAE3B6E01333B667B6E5A1E3B6E9A42B2
:102D7000BFF460AE3B899B003B81FB6D9B08FB650C
:102D8000FB6D042B3FF64CAE7B6EBB657B6E9B08E8
:102D90007B660023BB6633E1BA6E7B6E13447B65B2
:102DA0007A6D7B6E13443B653A6D7B6E1344FB6416
:102DB000BB6EDB00FA68134493ED007A3B6DDB00D9
:102DC000FA681344D3ED007A77EE277AC7ED127ACA
:102DD000BB6EDB00FA68134493ED007A3B6DDB00B9
:102DE000FA681344D3ED007A77EE677AC7ED117A6B
:102DF000BB6EDB000433FA68134493ED007A3B6D3D
:102E0000DB000433FA681344D3ED007A77EE277AB7
:102E1000C7ED107ABB6EDB000433FA68134493ED00
:102E2000007A3B6DDB000433FA681344D3ED007A7B
:102E300077EE677AC7ED0F7A7B6DDB00FA68134493
:102E400093ED007AFB6CDB00FA681344D3ED007A53
:102E500077EE277AC7ED0E7ABB6EDB00FA68134473
:102E600097ED127AD7ED0E7A37EE277AD7ED1E7AE4
:102E700067EE277AC3ED007A97ED127AD7ED0E7AD6
:102E800077EE677AC7ED127A7B6DDB000433FA6860
:102E9000134493ED007AFB6CDB000433FA681344AF
:102EA000D3ED007A77EE277AC7ED0D7ABB6EDB00A3
:102EB0000433FA68134497ED107AD7ED0D7A37EEA4
:102EC000277AD7ED1E7A67EE277AC3ED007A97ED61
:102ED000107AD7ED0D7A77EE677AC7ED107A7B6DB1
:102EE000DB000433FA68134493ED007AFB6CDB00DB
:102EF0000433FA681344D3ED007A77EE677AC7EDAE
:102F00000E7A7B6DDB00FA68134493ED007AFB6C5C
:102F1000DB00FA681344D3ED007A77EE677AC7EDE9
:102F20000D7A7B6DDB00FA68134497ED127AD7EDCA
:102F30001E7A67EE277AC3ED007A7B6DDB000433DF
:102F4000FA68134497ED107AD7ED1E7A67EE277A68
:102F5000C3ED007A97ED117AD7ED0E7A77EE677AA6
:102F6000C7ED127A97ED117AD7ED0E7A77EE277AC0
:102F7000C7ED117A97ED0F7AD7ED0D7A77EE277AB4
:102F8000C7ED107A97ED0F7AD7ED0D7A77EE677A65
:102F9000C7ED0F7A3B6DDB00FA68134497ED127AA8
:102FA000D7ED1E7A67EE277AC3ED007A3B6DDB0022
:102FB0000433FA68134497ED107AD7ED1E7A67EE62
:102FC000277AC3ED007AFB6CDB00FA68134497EDB7
:102FD000117AD7ED1E7A67EE277AC3ED007AFB6C83
:102FE000DB000433FA68134497ED0F7AD7ED1E7AAD
:102FF00067EE277AC3ED007ABA6EBB6D1344BB66E9
:103000007A89BB6DD21ABB6E9A42BFF4C5AE7437D3
:10301000BD465DF8047B704780B489B000AFF860AE
:103020007B600B467B8113463B810023BB837B89FE
:103030005B087B837B895B089BB201333B83002366
:10304000FB83BAE0FA8BBB8B9A426FD2FB8BDB001F
:10305000FA6813441B687B61FB8BDB00FA6813443E
:10306000BA8BD200F9680A4412681A60BB8BDB0085
:10307000FA6813447A691A60FB8BDB000433FA6840
:1030800013441B687B61FB8BDB000433FA68134439
:10309000BA8BD2000432F9680A4412681A60BB8BFA
:1030A000DB000433FA6813447A691A60FA8B3B8BAD
:1030B0001344DB00FA6813441B687B61FA8B3B8B7B
:1030C0001344DB00FA681344B98B3A8B0A44D200EC
:1030D000F9680A4412681A60BA8B3B8B1344DB0010
:1030E000FA6813447A691A60FA8B3B8B1344DB004D
:1030F0000433FA6813441B687B61FA8B3B8B1344DF
:10310000DB000433FA681344B98B3A8B0A44D200CB
:103110000432F9680A4412681A60BA8B3B8B134474
:10312000DB000433FA6813447A691A60FB8B0133BD
:10313000DB00FA6813441B687B61FB8B0133DB0007
:10314000FA681344B98B7A8B0A44D200F9680A44AE
:1031500012681A60BA8B7B8B1344DB00FA68134445
:103160007A691A60FB8B0133DB000433FA6813447D
:103170001B687B61FB8B0133DB000433FA6813446B
:10318000B98B7A8B0A44D2000432F9680A44126877
:103190001A60BA8B7B8B1344DB000433FA68134448
:1031A0007A691A607B681B88BB833B895B007A68FD
:1031B00013447B60FB8B0233FB83FA8B7B8B023BDC
:1031C0009A427FF63FAF2437BD465DF8047B7047D7
:1031D00080B500AF4FF40000012101F0D1FC4FF4A5
:1031E0000000002101F0CCFC80BD00BF80B487B09E
:1031F00000AF786000237B6100233B610023FB600C
:103200000023BB604F4A4F4B1B6823F0031323F48A
:10321000F85313604B4B4B4A11687A6812680A43A3
:103220001A60484B474A526B22F007025A63454BDB
:10323000444A516B7A6852680A435A637B685B68F8
:10324000002B0CD17B68DB681B027B617B681B69F0
:103250001B043B617B685B691B06FB603AE07B6893
:103260005B68012B0AD17B68DB681B027B617B6892
:103270001B691B043B610023FB602BE07B685B68E0
:10328000022B0AD17B68DB685B017B617B681B6971
:10329000DB023B610023FB601CE07B685B68032B67
:1032A0000CD17B68DB685B017B617B681B699B02DF
:1032B0003B617B685B69DB03FB600BE07B68DB6881
:1032C0001B017B617B681B691B023B617B685B693F
:1032D0001B03FB601B4B1B4A916B78693A691043D7
:1032E0007A6892681043FA6802430A439A63154B5E
:1032F0007A689269DA63134A124B1B6C23F47F538A
:1033000023F03F0313640F4B0E4A116C7A68D269A5
:103310000A431A647B685B6A1B04BB60094B094A59
:10332000526C02F040425A64064B064A516C7A686D
:10333000106ABA6802430A435A641C37BD465DF8F6
:10334000047B704700B0024080B400AF044B044AD5
:10335000126842F001021A60BD465DF8047B7047B6
:1033600000B0024080B489B000AF78600023FB61F8
:103370000023BB6100237B6100233B610023FB60D2
:103380000023BB602C4B7A681268DA602A4A2A4B09
:103390001B6923F47F5323F03F031361264B264A16
:1033A00011697A6852680A431A61234A224BD96923
:1033B000224B0B40D3617B68DB681B01FB617B68A0
:1033C0001B691B02BB617B685B691B047B617B68BB
:1033D0009B691B063B61184B174AD1697A68906854
:1033E000FA691043BA6910437A6910433A69024393
:1033F0000A43DA61104B104A126A02F07F421A62E5
:103400007B681B6A1B02FB607B685B6A1B04BB60FA
:10341000094B094A116A7A68D069FA681043BA6898
:1034200002430A431A62044B7A68926ADA622437CA
:10343000BD465DF8047B704700B00240C000FC0050
:1034400080B483B000AF78607B6800221A607B682C
:1034500000225A607B6800229A607B680022DA6052
:103460007B6800221A617B6800225A617B68002217
:103470009A617B680022DA617B6800221A627B68AD
:1034800000225A627B6800229A620C37BD465DF8C2
:10349000047B704780B489B000AF78600023FB6183
:1034A0000023BB6100237B6100233B610023FB60A1
:1034B0000023BB602C4B7A6812685A612A4A2A4B57
:1034C0009B6923F47F5323F03F039361264B264AE5
:1034D00091697A6852680A439A61234A224B596A71
:1034E000224B0B4053627B68DB681B01FB617B68EE
:1034F0001B691B02BB617B685B691B047B617B688A
:103500009B691B063B61184B174A516A7A689068A1
:10351000FA691043BA6910437A6910433A69024361
:103520000A435A62104B104A926A02F07F429A6232
:103530007B681B6A1B02FB607B685B6A1B04BB60C9
:10354000094B094A916A7A68D069FA681043BA68E7
:1035500002430A439A62044B7A68926A1A632437D8
:10356000BD465DF8047B704700B00240C000FC001F
:1035700080B483B000AF78607B6800221A607B68FB
:1035800000225A607B6800229A607B680022DA6021
:103590007B6800221A617B6800225A617B680022E6
:1035A0009A617B680022DA617B6800221A627B687C
:1035B00000225A627B6800229A620C37BD465DF891
:1035C000047B704780B485B000AF78600023FB7344
:1035D000084B5A687B681340002B02D00123FB7311
:1035E00001E00023FB73FB7B18461437BD465DF8F2
:1035F000047B704700B0024090B589B002AFF8601C
:10360000B9607A60FB685B697B61FB689B79012B21
:1036100028D1FB689B881946FB68DA68FB681B6940
:10362000F86880687C6800940190B86800F03AF906
:103630007B6919887B695A687B699B89786900690D
:1036400000907868FFF73AF8FB68DB79012B2ED100
:103650007B6919887B69DA897B699B687868FFF7E1
:10366000DBFC24E07B6919887B695A687B699B894C
:10367000B868FEF7A1FBFB68DB79012B08D17B69F9
:1036800019887B69DA897B699B68B868FFF7C4FC95
:10369000FB689B881946FB68DA68FB681B69F86859
:1036A00080687C6800940190B86800F003F81C37CB
:1036B000BD4690BD80B491B000AFF860B9607A604B
:1036C0003B60BB6C08333B63BB681B01043BBA6CBB
:1036D0001344FB62FB680833BB62BB68DB00043B3E
:1036E000FA6813447B62BB68DB00FA681344FA682B
:1036F00012681A60BB68DB000433FA681344FA6886
:1037000052681A60FB6CDB007A681344BB63FB6C85
:10371000DB003A6813447B63BB68013BFB6390E0CA
:10372000BB6B1A1DBA631B683B62BB6B1B68FB61FA
:10373000BB6A93ED007AD7ED087A67EE277AC7ED7A
:10374000067ABB6A1A1DBA6293ED007AD7ED077A42
:1037500067EE277AC7ED057ABB6A93ED007A7B6A3C
:10376000D3ED007A37EE277AD7ED077A67EE277A1E
:1037700097ED067A77EE677AC7ED067ABB6A1A1D6F
:10378000BA6293ED007AD7ED087A67EE277A97ED63
:10379000057A77EE277AC7ED057A7B6B1B683B616C
:1037A0007B6A1A1F7A6293ED007AD7ED047A67EE8E
:1037B000277A97ED057A77EE677AC7ED057A7B6A07
:1037C00093ED007AD7ED077A67EE277A97ED057AC1
:1037D00077EE677AC7ED057A7B6A1A1F7A6293EDF6
:1037E000007AD7ED047A67EE277A97ED067A77EEBE
:1037F000277AC7ED067A3B6B1A1D3A63BA691A60DD
:103800003B6B1A1D3A637A691A60FB6A1A1FFA62E7
:10381000D7ED057AF1EE677AC3ED007AFB6A1A1FDD
:10382000FA62BA691A60FB6CDB007A6B13447B6343
:10383000FB6CDB00043BBA6B1344BB63FB6B013BCB
:10384000FB63FB6B002B7FF46BAFBB68DB00BA6CD8
:103850001344FA6892ED007AFA680432D2ED007AE5
:1038600077EE677AC3ED007ABB68DB000433BA6C8D
:1038700013444FF000021A60FB6893ED007AFB6876
:103880000433D3ED007A77EE277ABB6CC3ED007A70
:10389000BB6C04334FF000021A604437BD465DF83C
:1038A000047B704780B48FB000AFF860B9607A6075
:1038B0003B60FB68FB62BB68DB000433FA681344BF
:1038C000BB627B687B633B683B6384E07B6B1A1D58
:1038D0007A631B687B627B6B1B683B62FB6A93EDC0
:1038E000007AD7ED097A67EE277AC7ED077AFB6A87
:1038F0001A1DFA62D3ED007AB1EE677AD7ED087A35
:1039000067EE277AC7ED067AFB6A93ED007ABB6A09
:10391000D3ED007A37EE277AD7ED087A67EE277A6B
:1039200097ED077A77EE277AC7ED077AFB6A1A1DBB
:10393000FA6293ED007AD7ED097A67EE277A97ED70
:10394000067A77EE277AC7ED067A3B6B1B687B61B8
:10395000BB6A1A1FBA6293ED007AD7ED057A67EE5B
:10396000277A97ED067A77EE677AC7ED067ABB6A13
:1039700093ED007AD7ED057A67EE277A97ED077A0F
:1039800077EE277AC7ED077ABB6A1A1FBA6293ED02
:10399000007AD7ED087A67EE277A97ED067A77EE08
:1039A000277AC7ED067A3B6C1A1D3A64FA691A60E9
:1039B0003B6C1A1D3A64BA691A607B6CDB003A6B87
:1039C00013443B637B6CDB00043B7A6B13447B63E7
:1039D000BB68013BBB60BB68002B7FF477AF3C3713
:1039E000BD465DF8047B704780B582B000AF2A4BBE
:1039F0001B78002B4DD14FF40000012101F084F819
:103A0000264B9B681846012101F042F8234B9B6925
:103A10001846012101F03CF84FF40000012101F0AB
:103A2000CDF84FF40000002101F0C8F81B4B1A68D4
:103A30001A4B1B7B10461946042206F039FA174B25
:103A40001A69164B1B7F10461946042206F030FAFD
:103A500002233B7102237B710123BB710023FB71A5
:103A60000E4B9B883B600D4B1A683B46104619462F
:103A700006F076F9094B9B8A3B60084B1A693B4676
:103A80001046194606F06CF900F0D0F9024B0122FD
:103A90001A700837BD4680BD8D0500203800002013
:103AA00080B584B000AF02460B46FA71BB710023AB
:103AB0007B814FF44053FB607148012107F0D0FF38
:103AC0004FF44053FB600CE0FB68002B03D0FB6815
:103AD000013BFB6005E04FF0FF3000F0C9F9034601
:103AE000C8E06748674908F079F80346002BEBD037
:103AF0006348002108F012F8FB796148194600225A
:103B000007F0EEFF4FF44053FB600CE0FB68002B26
:103B100003D0FB68013BFB6005E06FF0010000F0A3
:103B2000A7F90346A6E05648574908F057F8034658
:103B3000002BEBD0524B1B8B4FF44053FB600CE03F
:103B4000FB68002B03D0FB68013BFB6005E06FF0D6
:103B5000020000F08DF903468CE049484B4908F01B
:103B60003DF80346002BEBD0BB794548194608F0D9
:103B700017F84FF44053FB600CE0FB68002B03D0B8
:103B8000FB68013BFB6005E06FF0030000F070F99B
:103B900003466FE03A483D4908F020F80346002B01
:103BA000EBD037483A4908F019F80346002BE4D027
:103BB0003348012107F054FF4FF44053FB600CE001
:103BC000FB68002B03D0FB68013BFB6005E06FF056
:103BD000040000F04DF903464CE02948294907F05C
:103BE000FDFF0346002BEBD0FB7925481946012247
:103BF00007F076FF4FF44053FB600CE0FB68002BAE
:103C000003D0FB68013BFB6005E06FF0050000F0AE
:103C10002FF903462EE01A481B4907F0DFFF034641
:103C2000002BEBD0164B1B8B4FF44053FB600CE08A
:103C3000FB68002B03D0FB68013BFB6005E06FF0E5
:103C4000060000F015F9034614E00D48114907F08D
:103C5000C5FF0346002BEBD00948012107F020FFE8
:103C6000074807F0ADFF03467B810548012107F0B7
:103C700055FF7B891BB218461037BD4680BD00BF7B
:103C8000005C0040010000100200001080000010E5
:103C9000040000104000001080B584B000AF13464F
:103CA0000246FA710A46BA717B7100237B814FF498
:103CB0004053FB605048012107F0D2FE4FF44053BF
:103CC000FB600CE0FB68002B03D0FB68013BFB6052
:103CD00005E04FF0FF3000F0CBF8034686E04648A1
:103CE000464907F07BFF0346002BEBD0FB794248A7
:103CF0001946002207F0F4FE4FF44053FB600CE03D
:103D0000FB68002B03D0FB68013BFB6005E06FF014
:103D1000010000F0ADF8034668E03748384907F085
:103D20005DFF0346002BEBD0334B1B8B4FF440530E
:103D3000FB600CE0FB68002B03D0FB68013BFB60E1
:103D400005E06FF0020000F093F803464EE02A48C9
:103D50002C4907F043FF0346002BEBD0BB792648E4
:103D6000194607F01DFF4FF44053FB600CE0FB6861
:103D7000002B03D0FB68013BFB6005E06FF0030004
:103D800000F076F8034631E01B481E4907F026FF95
:103D90000346002BEBD07B791748194607F000FF4C
:103DA0004FF44053FB600CE0FB68002B03D0FB6832
:103DB000013BFB6005E06FF0040000F059F803469A
:103DC00014E00D480F4907F009FF0346002BEBD024
:103DD00009480D4907F002FF0346002BE4D00648CE
:103DE000012107F05DFE00237B817B891BB2184611
:103DF0001037BD4680BD00BF005C004001000010D0
:103E000002000010800000100400001080B483B095
:103E100000AF786000BF7B685A1E7A60002BFAD131
:103E20000C37BD465DF8047B704700BF80B584B099
:103E300000AF0023BB804BF6FF73FB8000233B8168
:103E40004FF480637B814FF48043BB81064B3B6022
:103E50000648012107F0E4FD3B460448194607F0F7
:103E60001DFD1037BD4680BDA0860100005C0040EE
:103E700080B584B000AF0346FB80FB88FB810B4814
:103E8000012107F00DFE0948012107F067FE0748F0
:103E9000002107F063FE054807F0C6FCFFF7C6FFE8
:103EA000FB891BB218461037BD4680BD005C004040
:103EB00080B58AB000AF7860396000237B62002350
:103EC0003B620023FB610023BB617B681B8A9BB2C2
:103ED0007B627B6A23F440537B623B68DB887A6AAF
:103EE00013437B627B6A9AB27B681A827B689B89E8
:103EF0009BB27B627B6A23F4B05323F00C037B629A
:103F00003B689A883B681B8913439AB23B685B897C
:103F100013439BB27A6A13437B627B6A9AB27B68D3
:103F20009A817B689B8A9BB27B627B6A23F4407395
:103F30007B623B689B897A6A13437B627B6A9AB295
:103F40007B689A8207F10803184600F0D9FC7A686A
:103F5000314B9A4203D07A68304B9A4202D17B6946
:103F60003B6201E03B693B627B689B899BB29BB2F1
:103F70001BB2002B0CDA3A6A13469B0013449A00DA
:103F80001A443B681B685B00B2FBF3F3FB610BE078
:103F90003A6A13469B0013449A001A443B681B6814
:103FA0009B00B2FBF3F3FB61FA691D4BA3FB021309
:103FB0005B091B017B627B6A1B09642202FB03F322
:103FC000FA69D31ABB617B689B899BB29BB21BB217
:103FD000002B0DDABB69DB0003F13202104BA3FBAF
:103FE00002135B0903F007037A6A13437B620CE058
:103FF000BB691B0103F13202094BA3FB02135B09EE
:1040000003F00F037A6A13437B627B6A9AB27B6880
:104010001A812837BD4680BD0010014000140140C0
:104020001F85EB5180B483B000AF78600B46FB7006
:10403000FB78002B08D07B689B899BB243F400532C
:104040009AB27B689A8107E07B689B899BB223F4D4
:1040500000539AB27B689A810C37BD465DF8047BA9
:10406000704700BF80B483B000AF78600B46FB7030
:10407000FB78002B0AD07B689B899BB26FEA434395
:104080006FEA53439AB27B689A8107E07B689B8909
:104090009BB2C3F30E039AB27B689A810C37BD467C
:1040A0005DF8047B704700BF80B483B000AF7860D8
:1040B0000B467B807B88C3F308039AB27B689A80A7
:1040C0000C37BD465DF8047B704700BF80B483B0F9
:1040D00000AF78607B689B889BB2C3F308039BB2F8
:1040E00018460C37BD465DF8047B704780B487B036
:1040F00000AF786013460A467A807B7000233B61EC
:104100000023FB600023BB6000237B617B687B6135
:104110007B88DBB25B09DBB23B617B8803F01F036A
:10412000FB60FB68012202FA03F3BB603B69012BD1
:1041300003D17B690C337B6109E03B69022B03D11E
:104140007B6910337B6102E07B6914337B617B7890
:10415000002B06D07B697A691168BA680A431A6035
:1041600006E07B697A691168BA68D2430A401A602E
:104170001C37BD465DF8047B704700BF80B485B036
:1041800000AF78600B467B800023FB737B681B8845
:104190009AB27B8813409BB2002B02D00123FB73A1
:1041A00001E00023FB73FB7B18461437BD465DF826
:1041B000047B704780B487B000AF78600B467B808B
:1041C0000023FB6000237B610023BB600023FB74A2
:1041D0007B88DBB25B09DBB2BB607B8803F01F032B
:1041E0007B617B69012202FA03F37B61BB68012BCF
:1041F00006D17B689B899BB27A6913407B610FE093
:10420000BB68022B06D17B681B8A9BB27A6913407C
:104210007B6105E07B689B8A9BB27A6913407B6176
:104220007B881B0A9BB2FB60FB68012202FA03F346
:10423000FB607B681B889BB2FA681340FB607B695C
:10424000002B05D0FB68002B02D00123FB7401E09A
:104250000023FB74FB7C18461C37BD465DF8047BCD
:10426000704700BF80B586B002AF0023FB6001231A
:10427000BB6000237B600023FB70BB6800930B488E
:104280000B494FF400727B6800F00EFD0346FB7093
:1042900097F90330002B01D0002302E00123FB60DB
:1042A000FB6818461037BD4680BD00BFA036002011
:1042B000B836002080B582B000AF294829492A4A83
:1042C000FFF79AF9284829494FF4007201F078FE67
:1042D000274B7B6002233B6015E0244A3B689B0030
:1042E000134493ED007AD7ED017AB4EEE77AF1EE5C
:1042F00010FA05DD1D4A3B689B0013441B687B6078
:104300003B6801333B603B68FF2BE6D9194B002229
:104310001A80184B00225A8002233B6019E0134A8E
:104320003B689B00134493ED007ADFED137A27EE90
:10433000277AD7ED017AC7EE277AFCEEE77A17EEF7
:10434000903A99B20B4B3A6823F812103B6801334C
:104350003B603B68FF2BE2D90837BD4680BD00BFFC
:10436000A0360020102E002090050020901500207F
:10437000CDCCCC3D8C2200200000C84280B489B056
:1043800000AF78600023FB610023BB6100237B61E9
:1043900000233B610023FB600023BB603F4A3F4B8F
:1043A00099683F4B0B4093607B681B691B04FB6162
:1043B0003A4B3A4A91687A685069FA6902430A436B
:1043C0009A60364A354BD968354B0B40D3607B68D1
:1043D0009B691B04BB61314B304AD1687A68D06954
:1043E000BA6902430A43DA602C4A2C4B19692C4BF8
:1043F0000B4013617B681B6A1B047B61274B274AB8
:1044000011697A68506A7A6902430A431A61234A39
:10441000224B5969224B0B4053617B689B6A1B04FA
:104420003B611E4B1D4A51697A68D06A3A69024362
:104430000A435A61194A194B99691A4B0B40936107
:10444000164B164A91697A6810687A685268104368
:104450007A68926810437A68D26802430A439A6184
:104460007B685B6B1B02FB607B681B6B1B04BB6088
:104470000A4B0A4AD26A02F07F42DA62074B074AC5
:10448000D16AB868FA6810437A68926B02430A43AB
:10449000DA622437BD465DF8047B7047006801404E
:1044A00000F800F08F88FE0F80B483B000AF0346A1
:1044B000FB71FB79002B06D0084B084A926942F049
:1044C00001029A6105E0054B044A926922F001025B
:1044D0009A610C37BD465DF8047B70470068014067
:1044E00080B483B000AF0346FB71FB79002B06D08C
:1044F000084B084A926942F480329A6105E0054B04
:10450000044A926922F480329A610C37BD465DF804
:10451000047B70470068014080B483B000AF7860CE
:10452000034B7A685A620C37BD465DF8047B7047CE
:104530000068014080B489B000AF78603960002322
:10454000FB610023BB6100237B6100233B610023EF
:10455000FB600023BB603B685B681B04FB617B68FE
:104560005B6803F470427B685A603B681A68FB69B9
:104570001A437B685A603B68DB681B04BB617B683D
:104580009B6803F470427B689A603B689A68BB69D9
:104590001A437B689A607B681B6923F007027B687B
:1045A0001A613B681A697B681A613B68DB691B0208
:1045B0007B613B681B6A1B043B613B685B6A1B06B3
:1045C000FB607B689B697B6800229A613B689A6903
:1045D0007B691A433B691A43FB681A437B689A61FB
:1045E0007B685B6923F0FF027B685A613B685A690C
:1045F0007B685A617B68DB6923F4E06323F007037F
:104600007A68D3613B689A6A3B68DB6A1A437B68C5
:10461000DA617B689B6A7B6800229A623B681A6B4E
:104620007B689A623B689B6B1B04BB607B68DB6AA0
:1046300003F0E0227B68DA623B685A6BBB681A437E
:104640007B68DA627B681B6B23F4FF6323F007034C
:104650007A6813633B68DA6B7B681A632437BD465C
:104660005DF8047B704700BF80B483B000AF786012
:104670000B46FB70FB78002B06D07B681B6843F071
:1046800001027B681A6005E07B681B6823F0010269
:104690007B681A600C37BD465DF8047B704700BF2D
:1046A00080B483B000AF78600B46FB70FA787B680B
:1046B0005A610C37BD465DF8047B704780B582B007
:1046C00000AF134B7B60134B3B6007E03B681A1D48
:1046D0003A607A68111D796012681A603A680E4B68
:1046E0009A42F3D30D480E494FF000028842B8BFFA
:1046F00040F8042BFFF6FAAFDFF82800016841F418
:104700007001016000F0CAF80837BD4680BD00BFE7
:10471000D4760208000000208C0500208C050020C3
:10472000F836002088ED00E080B400AFFEE700BF5F
:1047300080B584B000AF0023FB7342E0FA7B2449CC
:1047400013469B0013449B000B4408335B681846D8
:10475000012100F09DF9FA7B1D4913469B0013448B
:104760009B000B4408331B887B6001233B720023B2
:10477000BB720123FB7202237B72FA7B144913463E
:104780009B0013449B000B445A683B1D104619467E
:1047900005F0E6FAFA7B0E4913469B0013449B0092
:1047A0000B4410331B78002B04D1FB7B184600F020
:1047B00011F803E0FB7B184600F02AF8FB7B01337D
:1047C000FB73FB7B012BB9D91037BD4680BD00BF01
:1047D0005800002080B483B000AF0346FB71FA7923
:1047E0000A4913469B0013449B000B445968FA790D
:1047F000064813469B0013449B00034408331B8860
:104800004B830C37BD465DF8047B70475800002091
:1048100080B483B000AF0346FB71FA790A491346AE
:104820009B0013449B000B445968FA7906481346D1
:104830009B0013449B00034408331B880B830C37F5
:10484000BD465DF8047B70475800002090B482B0EC
:1048500000AF0346FB71FA790F4913469B001344DE
:104860009B000B445968FA790B4813469B0013448C
:104870009B0003445B685869FA79074C13469B0018
:1048800013449B00234408331B8843404B61083783
:10489000BD4690BC704700BF5800002080B500AFF7
:1048A00005F040FCFBF782FCFBF7C2FCFEE700BF13
:1048B00080B485B000AFF860B9607A60074BFA68E1
:1048C0009101BA68120611437A6812070A43C3F8C5
:1048D00088201437BD465DF8047B704700380240DD
:1048E00080B483B000AF0346FB71044BFA791A60C1
:1048F0000C37BD465DF8047B704700BF700047422F
:1049000080B489B000AF78600023BB6100237B6175
:104910000023FB6102233B610023FB600223BB6099
:10492000484B9B6803F00C03BB61BB69042B07D0A9
:10493000082B09D0002B3FD17B68434A1A603FE027
:104940007B68424A1A603BE03E4B5B6803F480039D
:104950009B0DFB603B4B5B6803F03F03BB60FB6858
:10496000002B0DD0394ABB68B2FBF3F2354B5968C6
:1049700047F6C0730B409B0903FB02F3FB610CE09D
:10498000314ABB68B2FBF3F22E4B596847F6C0734D
:104990000B409B0903FB02F3FB612A4B5B6803F4AA
:1049A00040331B0C01335B003B61FA693B69B2FB8E
:1049B000F3F27B681A6003E07B68234A1A6000BF49
:1049C000204B9B6803F0F003BB61BB691B09BB6113
:1049D0001F4ABB6913441B78DBB27B617B681A6892
:1049E0007B69DA407B685A60164B9B6803F4E0539E
:1049F000BB61BB699B0ABB61154ABB6913441B7849
:104A0000DBB27B617B685A687B69DA407B689A60BD
:104A10000C4B9B6803F46043BB61BB695B0BBB61E0
:104A20000B4ABB6913441B78DBB27B617B685A6815
:104A30007B69DA407B68DA602437BD465DF8047B29
:104A4000704700BF003802400024F40000127A00D2
:104A50008000002080B485B000AF78600023FB6048
:104A60000A4BD3F88C30FB60FB6823F44033FB60C7
:104A7000FA687B681343FB60044BFA68C3F88C2028
:104A80001437BD465DF8047B704700BF0038024014
:104A900080B483B000AF78600B46FB70FB78002BCE
:104AA00006D0094B084A116B7A680A431A6306E07C
:104AB000054B054A116B7A68D2430A401A630C37DA
:104AC000BD465DF8047B70470038024080B483B077
:104AD00000AF78600B46FB70FB78002B06D0094BCB
:104AE000084A916B7A680A439A6306E0054B054AC7
:104AF000916B7A68D2430A409A630C37BD465DF8E1
:104B0000047B70470038024080B483B000AF786007
:104B10000B46FB70FB78002B06D0094B084A116C42
:104B20007A680A431A6406E0054B054A116C7A68F4
:104B3000D2430A401A640C37BD465DF8047B7047C7
:104B40000038024080B483B000AF78600B46FB7041
:104B5000FB78002B06D0094B084A516C7A680A434F
:104B60005A6406E0054B054A516C7A68D2430A4004
:104B70005A640C37BD465DF8047B7047003802402C
:104B800080B483B000AF78600B46FB70FB78002BDD
:104B900006D0094B084A11697A680A431A6106E08F
:104BA000054B054A11697A68D2430A401A610C37ED
:104BB000BD465DF8047B70470038024080B483B086
:104BC00000AF78600B46FB70FB78002B06D0094BDA
:104BD000084A116A7A680A431A6206E0054B054AD8
:104BE000116A7A68D2430A401A620C37BD465DF8F2
:104BF000047B70470038024080B483B000AF786017
:104C00000B46FB70FB78002B06D0094B084A516A13
:104C10007A680A435A6206E0054B054A516A7A6887
:104C2000D2430A405A620C37BD465DF8047B704798
:104C30000038024080B487B000AF0346FB71002308
:104C4000FB6000237B610023FB74FB795B09DBB213
:104C5000FB60FB68012B03D1124B1B687B6109E0F1
:104C6000FB68022B03D10F4B1B6F7B6102E00D4BE6
:104C70005B6F7B61FB7903F01F03FB60FB687A6964
:104C800022FA03F303F00103002B02D00123FB748B
:104C900001E00023FB74FB7C18461C37BD465DF821
:104CA000047B70470038024080B586B000AFF860E2
:104CB000B9607A603B600023FB757B689BB21A4643
:104CC000FB681A607B689BB25B089AB2FB689A80AB
:104CD000FB68244ADA60FB68234A1A613B68DAB24F
:104CE000FB689A713B6ADAB2FB68DA71FB681B6891
:104CF000B3F5007F09D0B3F5006F02D0802B08D048
:104D00000BE0FB6801229A600AE0FB6804229A60CB
:104D100006E0FB6810229A6002E0FF23FB7500BFEB
:104D2000FB68BA685A61FB689B79002B0AD0FB6864
:104D30005A69FB689B88104619460122002307F038
:104D4000F1F909E0FB685A69FB689B88104619462F
:104D50000022002307F0E6F9FB7D5BB21846183706
:104D6000BD4680BD9CD200089CF2000880B485B08E
:104D700000AF786039600023FB600023FB727B6822
:104D80005B68FB60FB6823F0407323F48073FB6077
:104D90003B681B791A023B681B681343FA6813438C
:104DA000FB607B68FA685A607B689B68FB60FA6806
:104DB000174B1340FB603B681A693B68DB681A437A
:104DC0003B689B681A433B685B795B001343FA6856
:104DD0001343FB607B68FA689A607B68DB6AFB6060
:104DE000FB6823F47003FB603B681B7D013BDAB278
:104DF000FB7A1343FB72FB7A1B05FA681343FB60D3
:104E00007B68FA68DA621437BD465DF8047B704748
:104E1000FDF7FFC080B485B000AF78600023FB6071
:104E20000E4B5B68FB60FA680D4B1340FB607B68C0
:104E30001A687B685B681A437B689B681A437B68C7
:104E4000DB681343FA681343FB60044BFA685A604B
:104E50001437BD465DF8047B704700BF0023014056
:104E6000E030FCFF80B483B000AF78600B46FB708D
:104E7000FB78002B06D07B689B6843F001027B68BF
:104E80009A6005E07B689B6823F001027B689A606A
:104E90000C37BD465DF8047B704700BF80B485B019
:104EA00000AF7860F970BA707B700023FB6000235C
:104EB000BB60FB78092B23D97B68DB68FB60FB7840
:104EC000A3F10A0213465B001344072202FA03F31C
:104ED000BB60BB68DB43FA681340FB607978FB7802
:104EE000A3F10A0213465B00134401FA03F3BB600B
:104EF000FA68BB681343FB607B68FA68DA601EE0FF
:104F00007B681B69FB60FA7813465B001344072239
:104F100002FA03F3BB60BB68DB43FA681340FB6033
:104F20007978FA7813465B00134401FA03F3BB6007
:104F3000FA68BB681343FB607B68FA681A61BB7848
:104F4000062B21D87B685B6BFB60BB785A1E13462F
:104F50009B0013441F2202FA03F3BB60BB68DB43D0
:104F6000FA681340FB60F978BB785A1E13469B0021
:104F7000134401FA03F3BB60FA68BB681343FB6098
:104F80007B68FA685A6347E0BB780C2B21D87B68B2
:104F90001B6BFB60BB78DA1F13469B0013441F2278
:104FA00002FA03F3BB60BB68DB43FA681340FB60A3
:104FB000F978BB78DA1F13469B00134401FA03F318
:104FC000BB60FA68BB681343FB607B68FA681A63CE
:104FD00022E07B68DB6AFB60BB78A3F10D0213461D
:104FE0009B0013441F2202FA03F3BB60BB68DB4340
:104FF000FA681340FB60F978BB78A3F10D02134601
:105000009B00134401FA03F3BB60FA68BB681343C7
:10501000FB607B68FA68DA621437BD465DF8047B92
:10502000704700BF80B483B000AF78600B46FB7060
:10503000FB78002B06D07B689B6843F480727B680A
:105040009A6005E07B689B6823F480727B689A60B5
:105050000C37BD465DF8047B704700BF80B483B059
:1050600000AF0346FB71FB79002B06D0084B084AC2
:10507000526842F400525A6005E0054B044A5268F7
:1050800022F400525A600C37BD465DF8047B70472D
:105090000023014080B483B000AF03463960FB7148
:1050A00097F90730002B0BDA0D49FB7903F00F035A
:1050B000043B3A68D2B21201D2B20B441A7609E02C
:1050C000084997F907303A68D2B21201D2B20B44BC
:1050D00083F800230C37BD465DF8047B704700BFA2
:1050E00000ED00E000E100E080B582B000AF786044
:1050F0007B68013BB3F1807F01D301230FE00A4BB2
:105100007A68013A5A604FF0FF300F21FFF7C2FF73
:10511000054B00229A60044B07221A6000231846B0
:105120000837BD4680BD00BF10E000E080B586B006
:1051300000AF144B00221A60134B00221A6007F1D3
:1051400008031846FFF7DCFBFA68104BA3FB0213B9
:105150009B091846FFF7C8FF02200121FFF798FCC2
:1051600004233B6001233B710023BB710123FB71CE
:1051700002237B713B460648194604F0F1FD1837BF
:10518000BD4680BD901D002078220020D34D6210C6
:105190000004024080B400AF0D4B0D4A526982F00A
:1051A00004025A610B4B1B68002B04D0094B1B688F
:1051B0005A1E084B1A60084B1B68002B04D0064B84
:1051C0001B685A1E044B1A60BD465DF8047B70478D
:1051D00000040240901D00207822002080B483B09B
:1051E00000AF78600B46FB707B68FA781A70012379
:1051F00018460C37BD465DF8047B704780B485B017
:1052000000AF786039600023FB600AE07B685A1CBD
:105210007A603A68511C396012781A70FB68013361
:10522000FB603B681B78002BF0D1FB6818461437F5
:10523000BD465DF8047B704780B586B000AFF8606E
:105240007A603B600B46FB7200237B617B68013B0D
:105250007B603B68092B10D93A681E4BA3FB0213F5
:10526000DB08FA7AF86811467A68FFF7E5FF78619B
:105270007B69FA681344FB6011E00DE0FB7AF86883
:105280001946FFF7ABFFFB680133FB607B69013315
:105290007B617B68013B7B607B68002BEEDC3968BF
:1052A0000C4BA3FB0123DA0813469B0013445B005D
:1052B000CA1AD3B23033DBB2F8681946FFF78EFF53
:1052C00003467A6913447B617B6918461837BD46EB
:1052D00080BD00BFCDCCCCCC80B586B000AFF8602F
:1052E0007A603B600B46FB7200237B613B68002BBE
:1052F00003DA3B685B423B6101E03B683B617B68F2
:10530000013B7B603B69092B21D93B68002B0DDAFF
:105310003A692F4BA3FB0213DB085B42FA7AF86869
:1053200011467A68FFF7D8FF78610BE03A69284B9D
:10533000A3FB0213DB08FA7AF86811467A68FFF7D4
:10534000CBFF78617B69FA681344FB6026E03B6819
:10535000002B03DA7B68013B7B600EE00DE0FB7AFB
:10536000F8681946FFF73AFFFB680133FB607B6979
:1053700001337B617B68013B7B607B68002BEEDC4B
:105380003B68002B0ADAF8682D21FFF727FF034658
:105390007A6913447B61FB680133FB6039690C4B0C
:1053A000A3FB0123DA0813469B0013445B00CA1ACF
:1053B000D3B23033DBB2F8681946FFF70FFF03466C
:1053C0007A6913447B617B6918461837BD4680BDF6
:1053D000CDCCCCCC80B588B002AFF8607A600A46FC
:1053E000FA72BB7200237B617B68013B7B603B6A86
:1053F0001B09002B12D03B6A1909FA7ABB7A00917B
:10540000F86811467A68FFF7E5FF03467A691344A6
:105410007B617B69FA681344FB6011E00DE0FB7A65
:10542000F8681946FFF7DAFEFB680133FB607B6919
:1054300001337B617B68013B7B607B68002BEEDC8A
:105440003B6A03F00F03092B0BD83B6ADBB203F076
:105450000F03DBB23033DBB2F8681946FFF7BEFE4C
:1054600019E0BB7A002B0BD03B6ADBB203F00F03D1
:10547000DBB23733DBB2F8681946FFF7AFFE0AE05C
:105480003B6ADBB203F00F03DBB25733DBB2F868E1
:105490001946FFF7A3FE7B6901337B617B691846E0
:1054A0001837BD4680BD00BF80B58AB002AFF86036
:1054B000B9607A603B600023BB6100237B61FB68BD
:1054C000002B03D0FB6800221A70F8E0F7E07B683D
:1054D0001B78252B0BD0FB685A1CFA607A68511C8C
:1054E000796012781A707B6901337B61E7E07B6831
:1054F00001331B78252B0BD1FB685A1CFA6025223F
:105500001A707B6802337B607B6901337B61D6E074
:105510002023FB770023BB777B6801337B607B68AC
:105520001B78302B05D13023FB777B6801337B6000
:105530000FE00EE0BB7F1A46920013445B00DAB224
:105540007B681B781344DBB2303BBB777B6801334D
:105550007B607B681B782F2B03D97B681B78392BEA
:10556000E8D9BA7F7B6913441A46BB689A4205D9C9
:10557000BB68DAB27B69DBB2D31ABB777B681B7876
:10558000583B202B00F28D8001A252F823F000BF7F
:105590005D560008A3560008A3560008A35600084D
:1055A000A3560008A3560008A3560008A3560008F7
:1055B000A3560008A3560008A35600088D560008FD
:1055C00015560008A3560008A3560008A356000865
:1055D000A356000815560008A3560008A356000855
:1055E000A3560008A3560008A3560008A3560008B7
:1055F000A3560008A3560008A356000879560008D1
:10560000A35600082B560008A3560008A35600080E
:1056100041560008BA7F3B68191D39601B68F97F45
:10562000F868FFF759FEB8613EE0BA7F3B68191D84
:1056300039601B68F97FF868FFF7FEFDB86133E059
:10564000BA7F3B68191D39601968FB7F0091F868C3
:1056500019460023FFF7BEFEB86125E0BA7F3B681C
:10566000191D39601968FB7F0091F86819460123FC
:10567000FFF7B0FEB86117E03B681A1D3A601B687F
:10568000F8681946FFF7BAFDB8610DE03B681A1DCE
:105690003A601B68DBB2F8681946FFF79FFDB861F6
:1056A00002E04FF0FF3325E07B6801337B60BB698C
:1056B000FA681344FB607A69BB6913447B617B68B9
:1056C0001B78002B04D07A69BB689A42FFF4FFAEC6
:1056D0007A69BB689A4203D2FB6800221A7008E01C
:1056E000FB68013BFB60FB6800221A707B69013B91
:1056F0007B617B6918462037BD4680BD80B584B08C
:1057000000AFF860B9607A60F8686421BA687B68B5
:10571000FFF7CAFE034618461037BD4680BD00BFDE
:105720000EB480B585B000AF786007F12003BB6090
:105730007868F969BA68FFF7E1FFF860FB68184616
:105740001437BD46BDE8804003B0704780B584B0D3
:1057500000AF0023FB7332E0FA7B1E4913469B0027
:1057600013449B000B4408335B6818460121FFF784
:105770008FF900233B72FA7B164913469B001344B2
:105780009B000B4410331B78FB72FA7B11491346C4
:105790009B0013449B000B4408331B887B60FA7BFF
:1057A0000C4913469B0013449B000B445A683B1D55
:1057B0001046194604F0D4FAFB7B0133FB73FB7BE4
:1057C000002BC9D000F034F800F056F81037BD4671
:1057D00080BD00BFC004002080B485B000AF034688
:1057E000FB71FA79104913469B0013449B000B444C
:1057F00010335B78FB73FB790C4AD35CBB73FB798A
:105800000A4AF97BD154FB7B002B01D1002305E030
:10581000BB7B002B01D0002300E001231846143786
:10582000BD465DF8047B7047C0040020941D002035
:1058300080B584B000AF20200121FFF765F941F267
:105840008733BB6040F28333BB800023BB810023DE
:10585000FB803B1D0748194606F0D6FC0548012190
:1058600006F03CFD0348012106F058FD1037BD4607
:1058700080BD00BF0014004080B582B000AF0A4870
:105880000121012206F06AFD37233B7100237B7161
:105890000023BB710123FB713B1D184606F0D2F9B2
:1058A0000837BD4680BD00BF0014004080B582B0FF
:1058B00000AF1848012106F075FD0023FB7123E0BD
:1058C000FA79154913469B0013449B000B44596811
:1058D000FA79114813469B0013449B000344083394
:1058E0001B880846194604F0C9FA0346BB71FA79C9
:1058F000094913469B0013449B000B441033BA79AB
:105900005A70FB790133FB71FB79002BD8D0083733
:10591000BD4680BD00140040C004002090B589B091
:1059200000AF0023FB773EE1FA7FA2491346DB007C
:105930009B1ADB000B4420331B6818460121FFF73C
:10594000A7F8FA7F9B491346DB009B1ADB000B4448
:1059500030331B6818460121FFF79AF8FA7F954902
:105960001346DB009B1ADB000B4408335A68924B4A
:105970009A420BD0FA7F8F491346DB009B1ADB005B
:105980000B4408335A688D4B9A420CD1FA7F8949EF
:105990001346DB009B1ADB000B445B6818460121B1
:1059A000FFF7D0F80BE0FA7F82491346DB009B1A21
:1059B000DB000B445B6818460121FFF7A5F8FA7F6E
:1059C0007C491346DB009B1ADB000B441833186834
:1059D000FA7F78491346DB009B1ADB000B44203327
:1059E0001B791946FA7F734C1346DB009B1ADB00C8
:1059F000234408331B781A4604F05AFAFA7F6D499B
:105A00001346DB009B1ADB000B4428331868FA7F2F
:105A100068491346DB009B1ADB000B4430331B79CB
:105A20001946FA7F634C1346DB009B1ADB002344C4
:105A300008331B781A4604F03BFA02233B76032313
:105A40007B760023BB760123FB76FA7F5949134608
:105A5000DB009B1ADB000B4418339B887B61FA7FC9
:105A600054491346DB009B1ADB000B4418331A68B9
:105A700007F114031046194604F072F9FA7F4D49F4
:105A80001346DB009B1ADB000B4428339B887B61A9
:105A9000FA7F48491346DB009B1ADB000B4428338E
:105AA0001A6807F114031046194604F059F9FA7FF1
:105AB00040491346DB009B1ADB000B4408335B684C
:105AC00018460121FEF7CEFAFA7F3A491346DB0069
:105AD0009B1ADB000B4410331B687B6000233B8167
